{
  "address": "0x13dd1DF1be859169e94b89B17C067a26d8b6Cc80",
  "abi": [
    {
      "anonymous": false,
      "inputs": [
        {
          "indexed": false,
          "internalType": "string",
          "name": "newMessage",
          "type": "string"
        }
      ],
      "name": "MessageUpdated",
      "type": "event"
    },
    {
      "inputs": [],
      "name": "clearMessage",
      "outputs": [],
      "stateMutability": "nonpayable",
      "type": "function"
    },
    {
      "inputs": [],
      "name": "getMessage",
      "outputs": [
        {
          "internalType": "string",
          "name": "",
          "type": "string"
        }
      ],
      "stateMutability": "view",
      "type": "function"
    },
    {
      "inputs": [
        {
          "internalType": "string",
          "name": "_newMessage",
          "type": "string"
        }
      ],
      "name": "updateMessage",
      "outputs": [],
      "stateMutability": "nonpayable",
      "type": "function"
    }
  ],
  "transactionHash": "0x033ed09cc261671cbd7152b3dbdf527f0e0672b2b5baa733ed359d28d6cbe787",
  "args": [],
  "numDeployments": 1,
  "solcInputHash": "0ddbb669b38af6ca079663f4204db3aa",
  "bytecode": "0x608060405234801561001057600080fd5b50610446806100206000396000f3fe608060405234801561001057600080fd5b50600436106100415760003560e01c80631923be2414610046578063ac4664df1461005b578063ce6d41de14610063575b600080fd5b6100596100543660046101c8565b610081565b005b6100596100c8565b61006b610120565b6040516100789190610279565b60405180910390f35b600061008d8282610350565b507f8fae638bf5c6396194a6bb16601c4035a07fa48191638ff4102f0d96f14cfefb816040516100bd9190610279565b60405180910390a150565b60408051602081019091526000808252906100e39082610350565b506040805160208082526000908201527f8fae638bf5c6396194a6bb16601c4035a07fa48191638ff4102f0d96f14cfefb910160405180910390a1565b60606000805461012f906102c7565b80601f016020809104026020016040519081016040528092919081815260200182805461015b906102c7565b80156101a85780601f1061017d576101008083540402835291602001916101a8565b820191906000526020600020905b81548152906001019060200180831161018b57829003601f168201915b5050505050905090565b634e487b7160e01b600052604160045260246000fd5b6000602082840312156101da57600080fd5b813567ffffffffffffffff808211156101f257600080fd5b818401915084601f83011261020657600080fd5b813581811115610218576102186101b2565b604051601f8201601f19908116603f01168101908382118183101715610240576102406101b2565b8160405282815287602084870101111561025957600080fd5b826020860160208301376000928101602001929092525095945050505050565b600060208083528351808285015260005b818110156102a65785810183015185820160400152820161028a565b506000604082860101526040601f19601f8301168501019250505092915050565b600181811c908216806102db57607f821691505b6020821081036102fb57634e487b7160e01b600052602260045260246000fd5b50919050565b601f82111561034b57600081815260208120601f850160051c810160208610156103285750805b601f850160051c820191505b8181101561034757828155600101610334565b5050505b505050565b815167ffffffffffffffff81111561036a5761036a6101b2565b61037e8161037884546102c7565b84610301565b602080601f8311600181146103b3576000841561039b5750858301515b600019600386901b1c1916600185901b178555610347565b600085815260208120601f198616915b828110156103e2578886015182559484019460019091019084016103c3565b50858210156104005787850151600019600388901b60f8161c191681555b5050505050600190811b0190555056fea26469706673582212207db57afb8f5bb941b5db3b457957d0bc87d2a559ccd37cad9cb49cd1838e51e964736f6c63430008140033",
  "devdoc": {
    "author": "Sebera Jonas",
    "details": "A simple contract to store a message ",
    "kind": "dev",
    "methods": {},
    "title": "MessageBoard",
    "version": 1
  },
  "userdoc": {
    "kind": "user",
    "methods": {},
    "version": 1
  },
  "storageLayout": {
    "storage": [
      {
        "astId": 4,
        "contract": "contracts/MessageBoard.sol:MessageBoard",
        "label": "message",
        "offset": 0,
        "slot": "0",
        "type": "t_string_storage"
      }
    ],
    "types": {
      "t_string_storage": {
        "encoding": "bytes",
        "label": "string",
        "numberOfBytes": "32"
      }
    }
  }
}